:020000040800F2
:10000000F8760020290300086D4C00089B42000888
:10001000554C0008150700083D800008000000004E
:10002000000000000000000000000000690200085D
:10003000C50F000800000000C5020008CD5A0008E6
:100040004303000843030008430300084303000878
:100050004303000843030008430300084303000868
:10006000430300084303000843030008D90E0008B7
:1000700043030008E50E000843030008F10E0008E2
:10008000FD0E000843030008430300084303000873
:100090004507000843030008430300084303000822
:1000A0004303000843030008430300084303000818
:1000B000115C00081D5C00084303000843030008AE
:1000C00043030008430300084303000843030008F8
:1000D00043030008AD640008C5640008DD6400083F
:1000E00043030008430300084303000843030008D8
:1000F00043030008295C0008430300084303000889
:1001000043030008430300084303000843030008B7
:100110004D5F0008655F00084303000843030008C3
:1001200043030008090F0008150F000843030008E7
:100130004303000800000000000000004303000823
:100140007D07000843030008430300084303000839
:10015000430300084303000843030008E964000860
:100160004303000843030008430300084303000857
:1001700043030008714C000800000000000000006C
:10018000430300084303000800F002F800F05CF8A5
:100190000AA090E8000C82448344AAF10107DA45E2
:1001A00001D100F051F8AFF2090EBAE80F0013F0D8
:1001B000010F18BFFB1A43F00103184718BC0000D9
:1001C00038BC00000A444FF0000C10F8013B13F05B
:1001D000070408BF10F8014B1D1108BF10F8015BA0
:1001E000641E05D010F8016B641E01F8016BF9D193
:1001F00013F0080F1EBF10F8014BAD1C0C1B09D1EA
:100200006D1E58BF01F801CBFAD505E014F8016B5B
:1002100001F8016B6D1EF9D59142D6D370470000ED
:100220000023002400250026103A28BF78C1FBD8FF
:10023000520728BF30C148BF0B6070471FB50BF095
:1002400092FA1FBD10B510BD00F0DCF91146FFF7A2
:10025000F5FF09F047FC00F0FAF903B4FFF7F2FFED
:1002600003BC00F0FDF900002C4B19680868B0E8E9
:10027000F04F80F30988BFF36F8F4FF0000080F3D9
:10028000118870470000000008480068006880F38B
:1002900008884FF0000080F3148862B661B6BFF39F
:1002A0004F8FBFF36F8F00DF00BF00BF08ED00E08E
:1002B000DFF80C00016841F470010160704700BF75
:1002C00088ED00E0EFF30980BFF36F8F134B1A68DE
:1002D0001EF0100F08BF20ED108A20E9F04F1060CB
:1002E00009B44FF0500080F31188BFF34F8FBFF374
:1002F0006F8F0AF0E7F94FF0000080F3118809BC16
:1003000019680868B0E8F04F1EF0100F08BFB0EC95
:10031000108A80F30988BFF36F8F7047AC09002003
:10032000EFF30580704700000948804709480047FF
:10033000FEE7FEE7FEE7FEE7FEE7FEE7FEE7FEE795
:10034000FEE7FEE704480549054A064B70470000F2
:10035000915B000889010008F8700020F876002001
:10036000F8720020F872002053EA020C00F0698055
:100370002DE9F04B4FF00006002B1FBFB3FA83F5B9
:1003800003FA05F424FA05F65E4012BF1643B2FAEA
:1003900082F502FA05F4C5F120051EBF22FA05FC1C
:1003A00044EA0C04203556EA044C4FEA144418BFC2
:1003B000641C4FF000084FF00009904271EB030CF1
:1003C00039D3002919BFB1FA81F701FA07F6B0FA5B
:1003D00080F700FA07F6C7F120071EBF20FA07FCD6
:1003E00046EA0C062037B6FBF4FCA7EB0507103FE6
:1003F00007F01F0BCBF120060CFA0BFB2CFA06F6CC
:1004000044BFB3460026202FA4BF5E464FF0000B2A
:100410005BEA060C08BF4FF0010B19EB0B09ABFBB5
:10042000027C48EB0608C01B06FB02CC0BFB03CC8E
:1004300071EB0C01C1E70B46024641464846BDE858
:10044000F08B13B54FF000004FF00001AFF30080C8
:10045000BDE81C407047032A40F2308010F0030CC6
:1004600000F0158011F8013BBCF1020F624498BF07
:1004700011F801CB00F8013B38BF11F8013BA2F1A4
:10048000040298BF00F801CB38BF00F8013B11F01F
:10049000030300F02580083AC0F0088051F8043BBF
:1004A000083A51F804CBA0E80810F5E7121D5CBF2C
:1004B00051F8043B40F8043BAFF30080D20724BF5F
:1004C00011F8013B11F801CB48BF11F8012B24BFF3
:1004D00000F8013B00F801CB48BF00F8012B704742
:1004E00010B5203AC0F00B80B1E81850203AA0E8CF
:1004F0001850B1E81850A0E81850BFF4F5AF5FEA03
:10050000027C24BFB1E81850A0E8185044BF18C9B5
:1005100018C0BDE810405FEA827C24BF51F8043B5C
:1005200040F8043B08BF7047D20728BF31F8023BB0
:1005300048BF11F8012B28BF20F8023B48BF00F844
:10054000012B70474FF000020429C0F0128010F018
:10055000030C00F01B80CCF1040CBCF1020F18BF9F
:1005600000F8012BA8BF20F8022BA1EB0C0100F032
:100570000DB85FEAC17C24BF00F8012B00F8012B05
:1005800048BF00F8012B70474FF0000200B513463A
:1005900094469646203922BFA0E80C50A0E80C50A3
:1005A000B1F12001BFF4F7AF090728BFA0E80C5054
:1005B00048BF0CC05DF804EB890028BF40F8042B4D
:1005C00008BF704748BF20F8022B11F0804F18BFBA
:1005D00000F8012B704770477047704710B500F066
:1005E00009F8006810BD10B5044600F003F8046077
:1005F00010BD000000487047987000200048704708
:10060000987000207546FFF7F9FFAE460500694671
:10061000534620F00700854618B020B5FFF792FE3C
:10062000BDE820404FF000064FF000074FF00008F3
:100630004FF0000B21F00701AC46ACE8C009ACE874
:10064000C009ACE8C009ACE8C0098D46704710B5D8
:100650000446AFF300802046BDE81040FFF7FDBD23
:1006600001491820ABBEFEE72600020070470000DB
:1006700019489FED1B0A9FED1C2A10F8011F21F05D
:10068000010100F8011B1549D1ED010A60EE801A45
:10069000DFED140A81EEA01A11EE102A026091ED2E
:1006A000001A61EE001A81EE821A11EE102A4260E1
:1006B00091ED021A21EE001A81EE200A10EE101AB6
:1006C0008160D0F81F10C160D0F823100161D0F80C
:1006D0002710416170470000A41400200817002073
:1006E000DB0F494000003443000034C330B50C46F2
:1006F00005000CD0022C0AD90548A11E0288284604
:1007000000F0AAFD291901F8020D000A487030BD59
:10071000A8090020FEE7000000B58BB06946084834
:1007200000F03EF86946064800F04AFF02210448FE
:1007300000F0CCFE024801F09FFA0BB000BD0000B3
:100740006C0D0020014801F03CB800006C0D002049
:1007500000B58BB06946084800F022F869460648A3
:1007600000F02EFF0221044800F0B0FE024801F024
:1007700083FA0BB000BD0000940D0020014801F089
:1007800020B80000940D00200A8852BA02804A88DE
:1007900052BA42808A8852BA8280897981717047C0
:1007A00000220123C1E906230A604A608A60CA6008
:1007B0004A610A610E22C1E908320068034B98427F
:1007C00003D0034B984200D14A6170470064004057
:1007D0000068004070B5174C40F267552560002551
:1007E000A560E56008252561134C050A2570607039
:1007F000080AA070E170100A20716271180AA071D5
:10080000E371012322460B490C4800F071FE0028D9
:100810000FD0022322460749084800F069FE00284D
:1008200007D02246BDE8704004230249034800F087
:100830005FBE70BD0C160020FC070020940D002048
:1008400070B5154C4FF4A46525600025A560E560E2
:1008500006252561114C20706170100AA070E270AD
:10086000180A20716371012322460B490C4800F0DD
:100870003FFE00280FD0022322460749084800F017
:1008800037FE002807D02246BDE870400423024905
:10089000034800F02DBE70BD0C160020FC070020A0
:1008A000940D00200A4908B540F233320A60002254
:1008B0008A60CA6008220A610649020A6B460A7009
:1008C00048700A460249044800F012FE08BD0000C4
:1008D000F4150020F40700206C0D002038B50E4CF4
:1008E0004FF4007525600025A560E56008252561A9
:1008F0000A4C050A25706070080AA070E170100AA1
:1009000020716271180AA071E3716B462246024998
:10091000034800F0EDFD38BDDC150020EC07002099
:100920006C0D002008B50B4A40F2FF131360002342
:100930009360D36008231361074A030A9370D07051
:10094000080A107151716B460249044800F0D0FD4D
:1009500008BD0000AC150020DC0700206C0D002055
:100960000A4908B540F2FF120A6000228A60CA6094
:1009700008220A610649020A6B460A7048700A4654
:100980000249044800F0B4FD08BD0000AC15002089
:10099000DC070020940D002008B50B4A4FF40073CB
:1009A000136000239360D36008231361074A030A8E
:1009B00013705070080A9070D1706B460249044859
:1009C00000F096FD08BD0000C4150020E4070020DB
:1009D0006C0D0020002070470020704710B50022E9
:1009E0000449054805F094FF0449034805F083FFD6
:1009F000002010BD94610020B854002094590020BC
:100A000010B50146034805F076FF024805F04CFF9B
:100A1000002010BDB854002000207047094A10B5CE
:100A2000D2F8BC22D2F814220AB1012010BD0A4625
:100A30000146044805F06CFFBDE81040014805F090
:100A4000E1BF0000B8540020074808B5806809F0ED
:100A5000A5FD00BF09F036FF009000F01FFA03214A
:100A6000684609F055FDF5E70000002000B590ED5F
:100A7000021AD0ED000A90ED010A05F019F880ED98
:100A8000030A90ED010A90ED021AD0ED000AB1EED2
:100A9000400A05F00DF880ED040A90ED000A90ED93
:100AA000021AF1EE400A90ED010AB1EE400A04F09C
:100AB000FFFF80ED050A90ED000A90ED021AF1EEBD
:100AC000400A90ED010A04F0F3FF80ED060A00BD34
:100AD00010B5184800F042F8BDEEC00A154C10EEF3
:100AE000100A143C208004F1C00000F037F8BDEE7D
:100AF000C00A10EE100A608004F5B67000F02EF8FF
:100B0000BDEEC00A10EE100AA08004F5067000F0D9
:100B100025F8BDEEC00A10EE100A03B2E380B4F966
:100B20000420B4F90210B4F90000BDE81040FFF74A
:100B3000D5BE000068000020064810B5064982783E
:100B40000A70C07881F8600300F084F9BDE81040B5
:100B500000F01CB82C00002064000020B0F9022036
:100B600000F1200100EE102AF8EEC00A90ED050A0F
:100B7000084604F0DCB910B50146FFF777FF0846D8
:100B800000F08AF8BDE81040FFF7A2BF10B5084892
:100B900000F096F80648AC3000F092F8054800F0F6
:100BA0008FF80448BDE81040AC3000F089B8000070
:100BB00088000020E001002070B52E48B0F9080040
:100BC00007F046FBBDEEC00A2B4910EE100A9FED60
:100BD0002C0A0880294801F11C04808AC20704D02D
:100BE000D4EDE00A30EE800A05E0820706D5D4EDA8
:100BF000E00A30EEC00A84EDE00A13E0420704D5B3
:100C0000D4EDE10A30EEC00A0AE0000704D5D4EDC5
:100C1000E10A30EE800A03E09FED1A0A84EDE00A53
:100C200084EDE10ADFED181A9FED182A1848F0EE5E
:100C3000610AB0EE420A054607F0B4FA1448F0EE35
:100C4000610AB0EE420A001D07F0ACFAB1F90000EB
:100C500000EE100A0E48F8EEC00A9FED0E0AAC38FE
:100C600004F065F984EDE20A2846BDE87040FFF71C
:100C700082BF000018040020480000204816002011
:100C80000000FA430000000000409CC500409C4565
:100C9000E403002000F89345084990ED030A81ED34
:100CA000060A90ED040A81ED310A90ED050A81ED06
:100CB0005C0A90ED060A81ED870A70476400002007
:100CC000074990F888304A68012B04D00549022B67
:100CD00003D1183101E003490C31FFF7BCBB000020
:100CE00048000020400800202DE9F041DFF848814D
:100CF0002DED028BB8F9080007F0AAFABDEEC00A84
:100D00004E4F4F4C10EE100A4FF4257607F11C059C
:100D100000B23880617A012904D09FED4A8A032904
:100D20001DD03FE0E0884FF4FA5110FB01F090FB3A
:100D3000F6F000EE100AB8EEC00A85EDD90AA088D8
:100D400010FB01F090FBF6F000EE100AB8EEC00ABE
:100D500085EDDA0A9FED3C0A85EDDB0A63E0E18868
:100D60004FF4FA5211FB02F191FBF6F100EE101A6A
:100D7000B8EEC00A85EDD90AA18811FB02F191FBFA
:100D8000F6F100EE101AB8EEC00A85EDDA0A00EEB0
:100D9000100A2E48F8EEC00AB0EE480A04F0C7F870
:100DA00085EDDB0A607A02283DD1B8F9080007F02A
:100DB0004FFA38EE400ADFED260A41F2707187EDF6
:100DC000020AC5EDDB0AA08810FB01F090FBF6F0EB
:100DD00000EE900AE088B8EEE01A10FB01F090FBFC
:100DE000F6F000EE900AF8EEE00A04F09BFB85EDC9
:100DF000D90AA08841F2707110FB01F090FBF6F067
:100E000000EE100AE088B8EEC01A10FB01F090FB6B
:100E1000F6F000EE100AF8EEC00A97ED020A04F0B0
:100E2000D5FB85EDDA0A0948BDEC028B9030BDE8B0
:100E3000F041FFF7A0BE0000180400204800002089
:100E40004816002000F893450000000038030020F9
:100E50000000FA440949084690F8602381F8AC2064
:100E600090F8602381F8582190F8602381F80422DB
:100E700090F8600381F8B002704700006400002021
:100E80000020054903460246088048808880C880C3
:100E90000146FFF723BD00005C00002010B5FFF7FE
:100EA0004BFE6420FFF7FEFC0A48007A012807D0B9
:100EB000022809D003280BD1BDE81040FFF7E0BF9E
:100EC000BDE81040FFF710BFBDE81040FFF774BE4B
:100ED00010BD000048160020014800F05BBF000074
:100EE000AC110020014800F055BF0000EC100020BC
:100EF000014800F04FBF00004C110020014800F0F5
:100F000049BF00006C120020014800F043BF000000
:100F1000DC0E0020014800F03DBF00000C12002054
:100F200001681823CAB2103AB2FBF3F2054B6FF313
:100F30000901032A9B5CC36500D9091D8165084628
:100F40007047000040BB000810B5014600208B69C7
:100F50008A6A4FF0C07453B1B3F5005F15D072B117
:100F6000012A0CD0022A0AD0032A09D104E01AB1BE
:100F7000012A06D0022A03D1C96AC90100D501207D
:100F800010BDC96AA142FAD010BD002AF7D0012ACB
:100F9000F2D0022AF3D0032AF3D010BD30B5046892
:100FA000256825F480252560046863608368402BEC
:100FB000036803D099600068C26030BD9A60006821
:100FC000C16030BD70470000F0B5404890F83C105B
:100FD0000A2945D20122A0F890200222A0F89220EE
:100FE0000322A0F894200422A0F896200522A0F85D
:100FF000982040F201170622A0F89A207E1C0722B2
:10100000A0F89C20751C6C1CA0F89E70A0F8A06035
:10101000631CA0F8A250A0F8A4405A1CA0F8A63067
:10102000A0F8A82001290CD002290DD003290ED048
:1010300004290FD0052910D0062901D1A0F8AA2033
:10104000F0BDA0F8AA70F0BDA0F8AA60F0BDA0F8AD
:10105000AA50F0BDA0F8AA40F0BDA0F8AA30F0BD9B
:101060006522A0F890206622A0F892206722A0F8BE
:1010700094206822A0F896206922A0F8982040F2D7
:1010800065176A22A0F89A207E1C6B22A0F89C208B
:10109000751C6C1CA0F89E70A0F8A060631CA0F8E2
:1010A000A250A0F8A4405A1CA0F8A630A0F8A8208E
:1010B0006529C6D06629C7D06729C8D06829C9D094
:1010C0006929CAD06A29B9D0F0BD00001C170020D8
:1010D00010B5FFF721FBFFF73BFBBDE8104005F023
:1010E00009BA72B6FEE70000074800B50421017195
:1010F00080F8B410283003F09DFD03485DF804EB40
:10110000D83003F097BD0000C00500202DE908404D
:1011100009F0D8FB009000F0B5F90321684609F00A
:10112000F7F9F5E7DFED180A9FED181AC0ED110A7F
:10113000DFED171A80ED181A9FED160AC0ED191A87
:1011400080ED170A9FED140A80ED160AC0ED220A01
:10115000DFED120AC0ED290AC0ED2A1A80ED281A27
:1011600080ED270ADFED0E0A80ED2C0AC0ED2D0A76
:1011700080ED2E0A80ED2F0AF1EE040AC0ED300A50
:1011800080ED310A704700000000FA4500401C461F
:101190000050434700A08C46000000000024744922
:1011A0006F12833A9FED180ADFED180A80ED110ADD
:1011B0009FED171AC0ED180A80ED191A9FED150A58
:1011C000C0ED170ADFED141A80ED160AC0ED221AE1
:1011D000C0ED290ADFED110A80ED2A1AC0ED280AB8
:1011E00080ED270ADFED0E0A80ED2C0AC0ED2D0AF6
:1011F00080ED2E0ADFED0B0A80ED2F0AC0ED300ADC
:1012000080ED310A7047000000409C450050C34605
:10121000005043470000000000803B4600204B4642
:101220006F12833A6F12833B094B00B5012018718E
:10123000022083F8CC00074806F0F2FF181DFFF7E4
:10124000B1FF03485DF804EBCC30FFF76BBF000043
:10125000180400203803002010B558B1084C491E6E
:101260000BD310F8013B5340DBB234F8133083EA60
:101270001222F4E74FF6FF7010BD104610BD0000BB
:1012800040B9000810B5054C04E000BF10F8013B60
:101290005340E25C491EF9D2104610BD40B8000828
:1012A00010B5104800F036F8BDEEC00A0D4C10EE37
:1012B000100A0C3C208004F1D40000F02BF8BDEEA5
:1012C000C00A10EE100A6080B4F90000FFF748FB76
:1012D00005496088B1F900104042BDE8104000B2F5
:1012E000FFF720BB1C040020B2050020074810B502
:1012F000074982780A70C07881F8940100F0A6F856
:1013000000F01EF8BDE8104002F0D6BF2C0000200F
:101310001804002070B5044600F12405061DD0ED28
:10132000070A90ED080A683003F001FE86ED050A11
:10133000D4ED050A2846BDE8704003F0F8BD000072
:1013400010B5044800F016F80248BDE81040C83057
:1013500000F010B81C04002010B5054803F0FAF89E
:101360000348C83003F0ACF8BDE81040FFF798BF61
:101370001C04002070B501782A4C00F1240500F10E
:101380006806012902D002294BD123E0254995F8AE
:1013900088008A68012812D002282349284606D0EE
:1013A0002431FFF758F821493046A26810E03C315B
:1013B000FFF751F81D4930461831A26808E01A4974
:1013C00028463031FFF747F8184930460C31A268FB
:1013D000FFF741F895F88800012814D00228124937
:1013E000A268284607D04831FFF735F80F49304644
:1013F0002431A26811E06031FFF72DF80B49304627
:101400003C31A26809E0084928465431A268FFF738
:1014100022F80649A26830313046BDE87040FFF737
:101420001AB870BD000400204008002018090020F0
:1014300010B5054803F022FF0348C83003F0ECFE66
:10144000BDE81040FFF72CBF1C04002004480146F3
:1014500090F8942180F8B02081F87821704700003E
:101460001804002010B5064C002020806080FFF793
:1014700077FAB4F90200BDE810400021FFF752BA34
:101480000C04002010B5FFF731FF0E48007A012848
:101490000FD0022811D0032813D10B4890F89411D3
:1014A00018384278914200D04170BDE81040FFF7F3
:1014B000D9BFBDE81040FFF7BBBFBDE81040FFF744
:1014C0004BBF10BD481600201804002090F82020C3
:1014D000012A07D0022A05D0416A41F480214162E5
:1014E00001207047006842690A434261002070474A
:1014F000F0B590F820500468A468012D05D0022DA5
:1015000003D0416A41F4802157E014F0406F01D1CB
:10151000E5004FD5C4F301640125A5401D608D6829
:101520004FF4C0739DB1CE6835434E6845EAC60599
:10153000066803EB0417F5514FF4C275076805EB15
:1015400004150E697E51097D012905D009E00E8838
:10155000CD6845EA4655EBE701684E5946F480767A
:101560004E511179D579567941EA056195792D0465
:1015700045EA062529434FF4C676056806EB0416AE
:10158000A9511178D57841EA0561957852782D04F2
:1015900045EA022211434FF4C475026805EB0415B5
:1015A0005151006803EB0411425842F001024250CD
:1015B0000020F0BD416A41F4001141620120F0BDFC
:1015C00010B590F82020012A07D0022A05D0416AE0
:1015D00041F480214162012010BD3B48D0F8002237
:1015E00042F00102C0F80022D0F8002222F47C521E
:1015F000C0F80022D0F800224B6A42EA0322C0F869
:1016000000220A7D02F01F0301229A40D0F81C320A
:101610009343C0F81C32CB69B3B9D0F80C32934372
:10162000C0F80C328C894B6864F31F434C6900EBA3
:10163000C404C4F840320C890B6864F31F434C693E
:1016400000EBC404C4F84432CB69012B16D1D0F8A6
:101650000C321343C0F80C320C884B6864F31F4300
:101660004C6900EBC404C4F840320C89CB6864F3C5
:101670001F434C6900EBC404C4F844328B69002B4F
:10168000D0F804320ED01343C0F804320B69002B9B
:10169000D0F8143208D01343C0F81432096A012973
:1016A00004D008E09343EFE79343F5E7D0F81C122A
:1016B0001143C0F81C12D0F8001221F00101C0F84B
:1016C0000012002010BD000000640040704770B59B
:1016D00090F82040012C05D0022C03D0416A41F43F
:1016E000802128E0046809B32469A40720D04FF4BE
:1016F000D874056804EB01142D5915F004059560A4
:1017000005682D591AD0ED08556005682C5904F06C
:101710000204D4604FF4DA74056804EB01142E5906
:1017200006F00F06082E0CD308250DE0E468DCE770
:10173000416A41F400114162012070BD6D0D1560D8
:10174000E3E72D5905F00F05156105682D59C5F31F
:101750000725956105682C59240C54614FF4DC72FF
:10176000046802EB0112A4581C700468A458240AEF
:101770005C700468A458240C9C700468A258120E73
:10178000DA704FF4DE72046802EB0112A4581C7187
:101790000468A458240A5C710468A458240C9C7141
:1017A0000468A258120EDA71006829B1016941F08B
:1017B00020010161002070BDC16841F02001C160BD
:1017C000F8E72DE9F05F0546006800244669D0F887
:1017D00004908768D0F80CB0D0F810A0D0F818802A
:1017E000F10748D0F90714D001218160B80703D56B
:1017F000284600F06EFA0CE0780702D54FF400643A
:1018000007E0380702D54FF4805402E0284600F084
:101810005FFAF80516D529684FF480708860B8051E
:1018200003D5284600F057FA0CE0780502D544F4B9
:10183000005407E0380502D544F4804402E028460D
:1018400000F048FAF80316D529684FF48030886014
:10185000B80303D5284600F040FA0CE0780302D51F
:1018600044F4004407E0380302D544F4803402E035
:10187000284600F031FA300707D55FEACB6004D57F
:101880002968102044F40074C86070074FF00807FE
:1018900007D55FEA0B7004D52868C760284600F0BA
:1018A0009BF9B00706D52868C068800702D0284693
:1018B00000F094F9700607D55FEACA6004D529687C
:1018C000102044F480640861B00607D55FEA0A700E
:1018D00004D528680761284600F0CAF9F00606D545
:1018E00028680069800702D0284600F0C2F9B003DA
:1018F00008D55FEAC96005D52968102048602846E8
:1019000000F0B8F9F00307D55FEA097004D528683C
:101910004760284600F0E2F9300446D55FEA497096
:1019200040D5F00504D55FEAC87001D044F0010449
:10193000B00504D55FEA887001D544F00204700553
:1019400004D55FEA487001D544F00404300529D578
:1019500018F0700F26D008F07000402815D006DC73
:10196000102809D020280AD0302816D10AE05028A3
:101970000ED0602811D10EE044F008040DE044F0D0
:1019800010040AE044F0200407E044F0400404E0BE
:1019900044F0800401E044F480742868816921F0F7
:1019A00070018161296804204860002C05D0686AB4
:1019B000204368622846FFF789FEBDE8F09F70B5B6
:1019C000040003D094F8200010B104E0012070BDA1
:1019D000204600F081F82068016841F001010160B3
:1019E00000F054FC0546052604E000F04FFC401BC7
:1019F0000A2811D820684068C007F6D0206801681E
:101A000021F00201016000F041FC05460BE000F00E
:101A10003DFC401B0A2806D9606A40F40030606231
:101A200084F82060D2E7206840688007EFD4207EE9
:101A30000128206801683DD021F080010160607EAE
:101A400001282068016838D021F040010160A07EA3
:101A500001282068016833D021F020010160E07E78
:101A60000128206801682ED041F010010160207F1C
:101A700001282068016829D021F008010160607FF9
:101A800001282068016824D021F004010160D4E914
:101A900002010843D4E90412114308436168491E56
:101AA00008432168C86100206062012084F820009A
:101AB000002070BD41F08001C0E741F04001C5E762
:101AC00041F02001CAE721F01001CFE741F0080101
:101AD000D4E741F00401D9E7F0B587B004461421FA
:101AE0006846FEF751FD374B3748DFF8D4E01968F8
:101AF000D4F800C0344A02250326092710300024F8
:101B0000491CF44524D11960012907D1016841F02D
:101B100000710160006800F000700590106840F0EE
:101B200001001060106802AB00F0010005904FF456
:101B3000C050CDE9000583E8D0006946234800F095
:101B4000ADFA00220521142000F03EFC142033E001
:101B5000DFF87CE0F44531D1D0F800C04CF0806C67
:101B6000C0F800C0D0F800C001290CF0806CCDF89E
:101B700014C0196007D1016841F00071016000686C
:101B800000F000700590106840F0020010601068CE
:101B900002AB00F0020005904FF44050CDE9000583
:101BA00083E8D00069460B4800F078FA002205214E
:101BB000402000F009FC402000F0F8FB07B0F0BD29
:101BC000006400401C000020303802400000024049
:101BD00000680040000402407047000010B5044651
:101BE00000681D498AB0884220D16B4602AA0021B4
:101BF0001A48FFF76CFD0298A0F50070013809D073
:101C000001280AD0052802D006280FD109E069462C
:101C1000134809E06946134806E012486946B0389F
:101C200002E010486946B030FEF7AEFD0E4920686C
:101C300088420FD16B4602AA00210C48FFF747FDEE
:101C40000298A0F50070053804D105486946C838E7
:101C5000FEF79AFD0AB010BD006400406C0D002034
:101C6000E80400207806002000680040940D002061
:101C7000704770477047000070B5044690F8200028
:101C8000012804D0606A40F40020606218E002205D
:101C900084F820002068016821F00101016000F053
:101CA000F5FA05460EE000BF00F0F0FA401B0A28E6
:101CB00008D9606A40F400306062052084F8200092
:101CC000012070BD20684068C007EDD1606270BD22
:101CD00070477047704770477047704770472DE9ED
:101CE000F0410446876D00F0D1FA064694F83500BD
:101CF0000025022806D08020606584F83450012039
:101D0000BDE8F0812068016821F0160101602068BB
:101D1000416921F080014161206C08B9A06C20B1BB
:101D20002068016821F0080101602068016821F045
:101D3000010101600CE000F0A9FA801B052807D919
:101D400020206065032084F8350084F83450D7E7FC
:101D500020680068C007EED194F85C103F208840EE
:101D6000B860012084F8350084F834500020C7E7BB
:101D700090F83510022903D0802141650120704779
:101D8000052180F835100068016821F0010101602B
:101D9000002070472DE9F84304464FF00009CDF8C4
:101DA000009063484FF41651A56D0068B0FBF1F741
:101DB0002E6894F85C10082000FA01F131420FD02F
:101DC00021680A6852070BD50A6822F004020A60EB
:101DD00094F85C108840A860606D40F00100606578
:101DE00094F85C104FF0010808FA01F0304208D076
:101DF00021684969090604D5A860606D40F00200B9
:101E0000606594F85C1004208840304208D0216856
:101E10000968890704D5A860606D40F0040060651A
:101E200094F85C1010208840304218D0216809686E
:101E3000090714D5A86020680168490304D5006823
:101E4000000308D5A16C07E00168C90503D4016847
:101E500021F008010160216C09B12046884794F8FF
:101E60005C1020208840304231D021680968C906C2
:101E70002DD5A86094F8350005282068016806D0A3
:101E8000490347D5006800031DD4616C1CE021F0B4
:101E9000160101602068416921F080014161206CD8
:101EA00008B9A06C20B12068016821F00801016028
:101EB00094F85C103F208840A86084F8358084F84E
:101EC0003490216D1FE0E16B09B120468847606DB9
:101ED00000282BD0606DC00714D0052084F8350091
:101EE0002068016821F0010101600098401C009009
:101EF000B84203D820680068C007F6D184F835805E
:101F000084F83490E16C002910D001B02046BDE87F
:101F1000F04308470168C905D5D4016821F01001D4
:101F2000016084F8358084F83490CCE7BDE8F8830C
:101F3000200A00202DE9F041044600F0A7F90646EA
:101F40005CB1022084F83500002584F83450206804
:101F5000016821F0010101600DE00120BDE8F08180
:101F600000F094F9801B052805D920206065032026
:101F700084F83500F2E720680068C007F0D12268D5
:101F8000116820480140D4E901031843D4E903361D
:101F90003343184363691843A3691843E36918433B
:101FA000236A18430843616A042903D1D4E90B1357
:101FB00019430843106020684069666A20F00701F1
:101FC00030460E43012704280CD1A06A0643E06A7C
:101FD00040B12046FEF7B8FF20B14020606584F88C
:101FE0003570BAE7206846612046FEF799FF94F8FD
:101FF0005C203F2191408160656584F83570002048
:10200000ACE700003F8010F02DE9F0410446866DFA
:1020100090F83400002501280DD0012084F8340008
:1020200094F835700020012F07D084F83400022581
:102030002846BDE8F0810220FBE7022784F83570CE
:1020400060652046FEF7AAFF94F85C103F208840A8
:10205000B0602068016841F016010160206C20B179
:102060002068016841F0080101602068016841F0C2
:1020700001010160DCE7000070B5044600F006F9DC
:102080000546601C02D004480078044400F0FEF8C5
:10209000401BA042FAD370BD140A00202DE9F84F6E
:1020A000DFF8BCA10022012503264FF00F090AF139
:1020B000040BAAF1040E00BF0B6805FA02F42340DA
:1020C000A34270D10F7907F00307012F01D0022F2F
:1020D00016D187684FEA420806FA08FC27EA0C077F
:1020E000D1F80CC00CFA08FC4CEA070CC0F808C088
:1020F0004768A7430C79C4F3001494403C43446000
:102100000C79E443A4070AD0C4684FEA420C06FAEB
:102110000CF7BC438F6807FA0CF72743C7600C79AC
:1021200004F00304022C12D1D40800EB840CDCF878
:1021300020405707FF0E09FA07F824EA0804D1F8EF
:10214000108008FA07F848EA0408CCF820800468F0
:102150004FEA420C06FA0CF7BC430F7907F003076D
:1021600007FA0CF7274307604C6814F4403F70D01F
:102170003C4C276847F480472760246822F0030717
:1021800004F480440094384C07EB040CDCF8084855
:1021900097074FEA177809FA08F7BC43334FB8425C
:1021A00002D1002724E054E0314FB84201D1012789
:1021B0001EE0304FB84201D1022719E02E4FB8423D
:1021C00001D1032714E02D4FB84201D104270FE0BD
:1021D0002B4FB84201D105270AE02A4FB84201D15E
:1021E000062705E0284FB84201D1072700E008275D
:1021F00007FA08F72743CCF80878DAF80040574682
:10220000D1F804C09C435FEACC2C00D51C433C6051
:10221000DBF800405F46D1F804C09C435FEA8C2C99
:1022200000D51C433C60DEF800407746D1F804C07E
:102230009C435FEA8C3C00D51C433C60084F083F40
:102240003C68D1F804C09C435FEACC3C00D51C43F9
:102250003C60521C102AFFF42FAFBDE8F88F00003D
:10226000083C014044380240003001400000024078
:102270000004024000080240000C0240001002402E
:102280000014024000180240001C0240014880680F
:1022900070470000140A0020024881680278114447
:1022A00081607047140A00200B4810B5016841F4A2
:1022B00000710160016841F480610160016841F4CE
:1022C00080710160032000F09FF8052000F006F8FF
:1022D00000F050F8002010BD003C024030B505462B
:1022E0001F4887B00024016841F4807101600068D4
:1022F00006A900F48070009001A800F045FE049843
:10230000A8B100F067FE40001649174AB0FBF1F192
:102310001648491E026040F2E732C0E90324C0E9D2
:102320000114846101F0D2F8040003D015E000F03C
:1023300051FEE9E70D4801F013F904000DD12D20FD
:1023400000F034F8102D07D2002229462D2000F08D
:102350003BF80748056000E0012407B0204630BD87
:102360004038024040420F0000200040CC120020C4
:10237000180A00200C4882B0016841F480410160D5
:10238000006800F4804000900748001F016841F099
:10239000805101600068002200F0805000900F2101
:1023A000901E02B000F010B844380240002809DB4B
:1023B00000F01F02012191404009800000F1E0205F
:1023C000C0F8001170470000F0B40E4B1B680C46BB
:1023D000C3F30223C3F10705042D00D90425191DF9
:1023E000072901D2002300E0DB1E012606FA05F1D1
:1023F000491E214099409E40761E16403143F0BC54
:1024000005F050BF0CED00E0064900F00702086837
:102410004FF6FF03184040EA0220034A10430860C9
:10242000704700000CED00E00000FA0570470068FE
:10243000416200207047F0B50368586A39B19C6A60
:102440004FF4827600EB144400204D1E0AE040EA6F
:10245000024098620FE006EB8007DF59401C04EB56
:102460001744C0B2A842F6D344EA02404FF4807247
:1024700002EB810158500020F0BDD0F8E00404F0D8
:102480003EBD01EBC10200EB8202D0F8E004126A0B
:1024900004F093BC01EBC10200EB8202D0F8E0042F
:1024A000D2F8602204F0E4BCD0F8E00404F029BDC6
:1024B0000A0601F00F0101EBC10100EB810101D51A
:1024C000143101E001F51571006805F005BC70B527
:1024D00004460B0601F00F0000EBC00104EB810184
:1024E0004FF001024FF0000502D54A75143103E0A8
:1024F00081F8555201F51571087094F8940401287B
:1025000008D084F89424206805F004F984F89454E1
:10251000002070BD022070BD70B5044601F00F00B0
:102520002279904201D9012070BD0B0601F00F0104
:1025300001EBC10104EB81014FF001024FF00005F6
:1025400002D54A75143103E081F8555201F5157131
:102550008D70087094F89404012808D084F89424AD
:10256000206805F049FA84F89454002070BD0220D8
:1025700070BD01F00F0101EBC10100EB8100D0F84B
:10258000680270472DE9F04104460F0601F00F0084
:1025900000EBC00104EB81014FF001064FF0000594
:1025A00002D54E75143103E081F8555201F51571CD
:1025B00008708A600B714A7802B14883022B00D1FF
:1025C0004D7194F89404012809D084F8946420682B
:1025D00004F0F2FF284684F89454BDE8F08102200C
:1025E000FBE710B501F00F0404EBC40100EB81011F
:1025F000C1E998230023C1F8683281F8553281F887
:102600005442837901F51571012B00D1CA61827999
:10261000006805F049FA002010BD70B504460D466B
:1026200001F00F002179884201D9012070BD2906EF
:102630004FF000064FF0010206D500EBC00104EB9D
:1026400081014A75143107E005EBC50104EB8101F6
:1026500081F8556201F515718A70087094F8940438
:10266000012807D084F89424206805F0F1F92807A0
:1026700002D007E0022070BDA17904F29C422068DC
:1026800005F08EF984F89464002070BD10B501F057
:102690000F0404EBC40100EB8101C1E9082300230E
:1026A0008B6201234B7501F8144F8379012B00D104
:1026B000CA618279006805F0F7F9002010BD0000BA
:1026C0002DE9FC5F05680446284605F0A1FB0028BB
:1026D0007DD1206805F0C8FB002878D0D5F808081F
:1026E000C0F30D20C4F8D404206805F0BDFB8007BA
:1026F00004D52068416901F002014161206805F0BC
:10270000B3FBC10604F29C40009034D52068816977
:1027100021F0100181612F6A07F00F0000EBC0006B
:1027200004EB8006C7F3434006F51576022802D075
:10273000062811D01AE047F6F070074216D0C7F30A
:102740000A1217462846F16805F092FBF0683844F3
:10275000F0607069384408E008222846009905F0C6
:1027600087FB7069C7F30A110844706120688169AA
:1027700041F010018161206805F076FB00034FF005
:10278000080B4FF0000A4FF001097CD500262068A5
:1027900005F049FB074674E0F80770D0F1B22068F5
:1027A00005F05AFB8046C00707D005EB4611C1F87B
:1027B000089B3146204602F003FB5FEA087024D5EF
:1027C00005EB4611C1F808BB2068016C00E023E26C
:1027D00000EB46100191D0F8082BFB4B994205D92C
:1027E000110403D54FF40041C0F8081B204600F047
:1027F000F0FAF5490198884207D9A079012804D157
:1028000020680121009A05F0CBF85FEAC86004D582
:1028100005EB46111020C1F8080B5FEA88701DD542
:102820006869000605D5D5F8040840F48061C5F84C
:10283000041806EBC60004EB800090F8571200F570
:102840001570012905D180F803A0F1B2204600F0EF
:10285000E9F905EB46110220C1F8080B5FEA886030
:1028600004D505EB46102021C0F8081B5FEA88401C
:1028700005D505EB46104FF40051C0F8081B7F0842
:10288000761C002F88D1206805F0EEFA40036ED543
:10289000206805F0C1FA0746002666E0F80762D016
:1028A000F1B2206805F0C6FA8046C00723D006F0D2
:1028B0000F01D5F8342809FA01F18A43C5F8342804
:1028C00005EB4611C1F80899A07901280FD106EB54
:1028D000C60004EB8000D0E907211144016236B93B
:1028E000606A20B920680121009A05F059F8F1B218
:1028F0002046FFF7C6FD5FEA087003D505EB4611D9
:10290000C1F808B95FEAC86004D505EB461110208C
:10291000C1F808095FEA486004D505EB461040217C
:10292000C0F808195FEA887016D53146284605F0C8
:1029300044FA06EBC60004EB8000C17D1430012987
:1029400005D180F803A0F1B2204600F067F905EB4D
:1029500046110220C1F808095FEA086003D5314634
:10296000204602F093FA7F08761C002F96D120684B
:1029700005F07AFA002811DAD5F8040820F00101F0
:10298000C5F8041894F8CC0401282BD0204600F098
:1029900005FA2068416901F000414161206805F0B5
:1029A00063FA00050BD5D5F80808C00702D0204609
:1029B00000F038FA2068416901F400614161206843
:1029C00005F052FAC00467D5D5F8040820F00100DC
:1029D000C5F804081021206805F0EFF900214FF632
:1029E0007F3220E084F8CCA400212046FFF71EFDB2
:1029F000CFE700BF05EB4110C0F80829D0F8003937
:102A000023F40013C0F80039C0F8082BD0F8003BBD
:102A100023F40013C0F8003BD0F8003B43F0006300
:102A2000C0F8003B491C20798842E3D8D5F81C083F
:102A300040F00111C5F81C18E07B002828460DD095
:102A4000D0F8840840F00B01C5F88418D5F8440884
:102A500040F00B012846C5F844180DE0D0F81408E2
:102A600042F22B010843C5F81408D5F8100840F0CD
:102A70000B012846C5F81018D0F8000820F4FE61B4
:102A8000C5F80018A1792068009A04F089FF206831
:102A9000416901F480514161206805F0E5F9800445
:102AA00015D5206804F0C8FD206805F0A4F9E07190
:102AB00000F08AFA0146E279206805F037FA2046EC
:102AC00000F056F92068416901F400514161206825
:102AD00005F0CAF9000707D5204600F063F9206821
:102AE000416901F008014161206805F0BDF9000667
:102AF00016D5A86920F08001A96101260DE000BF6C
:102B000006EBC60004EB800090F85702012803D1C1
:102B1000F1B22046FFF7CCFC761C2079B042EFD80A
:102B2000206805F0A1F9C0021FD501264F4614E028
:102B300005EB4610D0F8001906EBC60004EB800246
:102B4000107E012808D1002906DAF0B240F0800199
:102B5000D7752046FFF7ACFC761C2079B042E7D849
:102B60002068416901F480114161206805F07CF919
:102B7000800234D501204A4629E000BF05EB401110
:102B8000D1F8001B00EBC00304EB830393F85862F9
:102B9000012E1BD1002919DA94F8D46401F4803194
:102BA00006F00106B14211D183F85722A96941F01C
:102BB0008003AB616969090608D4D5F8040840F4BC
:102BC0000070C5F8040805E00A30544F401C217914
:102BD0008142D3D82068416901F400114161206825
:102BE00005F042F9400007D52046FFF746FC206873
:102BF000416901F080414161206805F035F94007E5
:102C00000AD520684568680702D52046FFF74CFCC6
:102C10002068416829434160BDE8FC9FD0F8E0048A
:102C200004F0C5B9D0F8E00404F0D5B9F8B5040053
:102C300005D094F895042668002510B106E001201F
:102C4000F8BD84F89454204600F056F8032084F828
:102C50009504B6F1A04F00D1A571206804F09AFE4A
:102C6000207C8DF8000094E80F0004F0F3FC0226AD
:102C7000B8BB0021206805F01AF990BB002001279D
:102C80000DE000BF00EBC00104EB81014F7508753A
:102C9000C8850D76CD610D62401CC0B24D622179B0
:102CA0008142EFD8002011E000EBC00104EB81016C
:102CB00081F8555281F8540281F85852C1F85C529B
:102CC000C1F86052401CC0B2C1F8645221798142FF
:102CD000EAD8207C8DF8000094E80F0004F09CFDF9
:102CE00010B184F89564AAE7657484F89574206837
:102CF00004F084FD0020F8BD10B586B00446142110
:102D00006846FDF741FC17492068884227D1164CD8
:102D10000020216841F002012160216801F00201D8
:102D200005914FF4404100910221CDE901100320AB
:102D300003900C20049069460C48FFF7AFF9206817
:102D400040F0005020602068002200F00050059004
:102D500005214D20FFF738FB4D20FFF727FB06B07C
:102D600010BD000000000440303802400004024062
:102D700070B50446C079012570B1022801D0FEF774
:102D8000B0F92946D4F8E00404F093F9D4F8E0044B
:102D9000BDE8704004F048B90025F2E7D0F8E0043F
:102DA00004F070B9D0F8E00404F076B910B5044628
:102DB00090F8940401280AD0012084F894046174E6
:102DC000206805F0A2F8002084F8940410BD0220C9
:102DD00010BDD0F8E02400F29C41104604F075B913
:102DE00010B50446006894F89414012909D0012113
:102DF00084F89414C168490609D5617B012902D081
:102E000005E0022010BD816B41F4803181632068B0
:102E100004F0B1FF206804F0E3FC002084F894047F
:102E200010BD000010B50446D0F8E00404F08FF99E
:102E30002068D0F8001E41F00101C0F8001EE07AC1
:102E4000002804D00248016841F00601016010BD6D
:102E500010ED00E02DE9F0470E46050065D0DFF8E3
:102E60001481D8F80000F7B200F00700B04207D292
:102E700088F80070D8F8000000F00700B04254D184
:102E800028683D4C810712D5400703D5206840F4DF
:102E9000E05020602878000703D5206840F46040A7
:102EA00020602068A96820F0F0000843206028789E
:102EB000C0072DD0304968680839012812D002288F
:102EC00013D0032811D00968890700292DDA216859
:102ED00021F0030101432160FFF7D8F9814641F257
:102EE000883A0EE009688903EFE709688901ECE791
:102EF000FFF7CCF9A0EB0901514502D90320BDE849
:102F0000F0872068696800F00C00B0EB810FEFD10A
:102F1000D8F80010404601F00701B14207D9077008
:102F2000006800F00700B04201D00120E7E72878F0
:102F3000400705D52068E96820F4E0500843206088
:102F40002878000706D52068296920F4604040EA07
:102F5000C100206000F05EF82168084AC1F3031147
:102F6000515CC8400649086006480068FFF7B6F99A
:102F70000020C4E7003C02400838024048BB00087B
:102F8000200A0020180A00200F2202600C4A136851
:102F900003F003034360136803F0F00383601368D6
:102FA00003F4E053C36012684FF4E05303EAD20223
:102FB00002610448006800F00700086070470000E4
:102FC00008380240003C0240014800687047000099
:102FD000200A00200448054900680968044AC1F332
:102FE0008221515CC8407047200A00200838024006
:102FF00058BB00080448054900680968044AC1F341
:103000004231515CC8407047200A00200838024015
:1030100058BB0008154810B5006810F00C021448A1
:1030200013D01449042A0FD0082A0ED10F4C241FA4
:103030002268236802F03F025B0207D52068C0F3D4
:103040008810A0FB010106E0084610BD2168C1F30D
:103050008811A1FB00010023FDF786F92168C1F367
:103060000141491C4900B0FBF1F010BD0838024095
:103070000024F40040787D012DE9F84F04006ED063
:103080002078DFF84C93C007A9F104054AD009F174
:1030900004000168C1F38101012908D00068C0F370
:1030A000810002280AD1D9F80000400206D528681C
:1030B000800337D560680028E1D033E06068B0F560
:1030C000803F10D0B0F5A02F286810D020F48030B9
:1030D0002860286820F4802028606068A8B1FFF785
:1030E000D5F806460DE0286840F48030F4E740F457
:1030F00080202860F7E700BFFFF7C8F8801B64282E
:1031000073D828688003F7D50CE0FFF7BFF80646B0
:1031100005E000BFFFF7BAF8801B6428F0D82868E4
:103120008003F7D42078DFF8AC8280074FF0000AE4
:103130003ED5A748001D016811F00C0F08D00068AB
:10314000C0F3810002280BD1D9F80000400207D457
:103150002868800716D5E068012800D112E033E125
:10316000E068B8B10120C8F80000FFF78FF8064604
:1031700005E000BFFFF78AF8801B0228C0D8286846
:103180008007F7D52868216920F0F80040EAC100DF
:1031900028600DE0C8F800A0FFF778F8064604E0C4
:1031A000FFF774F8801B02281FD828688007F7D41F
:1031B0002078000722D5864F87486169703771B142
:1031C00001210160FFF762F8064604E0FFF75EF8B0
:1031D000801B022809D838688007F7D50EE0C0F8B0
:1031E00000A0FFF753F8064605E082E0FFF74EF82F
:1031F000801B02287DD838688007F7D420784007E4
:1032000068D5DFF8CCB100270BF13C0BDBF80000F0
:10321000C0000BD4DBF8001041F08051CBF8001057
:10322000DBF80000012700F0805000906B4E306802
:10323000C00510D4306840F480703060FFF726F885
:10324000009005E0FFF722F80099401A022850D8B4
:103250003068C005F6D55E4EA0686C3601280FD0E8
:103260000528306810D020F001003060306820F070
:1032700004003060A068B8B1FFF708F800900FE0D4
:10328000306840F00100F4E740F004003060F7E7F8
:10329000FEF7FCFF0099411A41F28830814266D85E
:1032A00030688007F4D50EE0FEF7F0FF009007E0ED
:1032B000FEF7ECFF0099411A41F28830814256D85E
:1032C00030688007F4D42FB1DBF8001021F0805172
:1032D000CBF80010A069C8B33D49091D0968C1F3C6
:1032E000810102294AD00228504607D0C8F8600060
:1032F00000E03CE0FEF7CAFF04463BE04746C8F862
:103300006000FEF7C3FF064605E000BFFEF7BEFF04
:10331000801B02282BD828688001F7D4D4E9070144
:103320000843A16A2E4A490802EB0141626A41EA58
:103330008211084394F82C1040EA0161C9F800108A
:1033400001203866FEF7A2FF044606E03EE000BF1B
:10335000FEF79CFF001B022809D828688001F7D5DA
:1033600034E000BFFEF792FF001B022802D90320C1
:10337000BDE8F88F28688001F4D427E00128F7D051
:10338000D9F80000E26900F4800191421CD1226A60
:1033900000F03F01914217D147F6C071626A0140C7
:1033A000B1EB821F10D1A26A4FF0FF3300F440311D
:1033B00003EB5202B1EB024F06D194F82C1000F04F
:1033C0007060B0EB016F01D00120D1E70020CFE7A2
:1033D0000438024000004742800E4742007000401F
:1033E0000000FFFF7047704710B590F83C20012A9D
:1033F00022D0012280F83C20CA688C6822F44072F6
:1034000022434C6822F4806222430C6822F400625A
:1034100022430C6922F4805222434C6922F4005268
:103420002243C969002322F480420A4301684A64A6
:1034300080F83C30002010BD022010BD70B590F81F
:103440003C20012A32D0012480F83C40022280F83E
:103450003D2003685A689D6822F070060A6832436E
:103460005A60134B02689A4214D0B2F1804F11D0C7
:10347000104B9A420ED0104B9A420BD00F4B9A42EF
:1034800008D00F4B9A4205D00E4B9A4202D00E4BF9
:103490009A4204D1496825F080031943916080F86D
:1034A0003D40002180F83C10084670BD022070BDF0
:1034B000000001400004004000080040000C0040F3
:1034C00000040140004001400018004010B5040015
:1034D00003D094F83D0010B107E0012010BD00209A
:1034E00084F83C00204600F01FF8022084F83D00DC
:1034F000211D206802F0A6FB012084F8460084F814
:103500003E0084F83F0084F8400084F8410084F8CD
:10351000420084F8430084F8440084F8450084F8AD
:103520003D00002010BD000008B50068B0F1804FDC
:1035300012D10A48016841F00101016000680022CF
:1035400000F00100009005211C20FEF73DFFBDE8C2
:1035500008401C20FEF72ABF08BD0000403802408A
:1035600090F83D10012901D001207047022180F818
:103570003D100168CA6842F00102CA600068114942
:10358000884214D0B0F1804F11D00F4988420ED03C
:103590000E4988420BD00E49884208D00D49884216
:1035A00005D00D49884202D00C49884204D1816877
:1035B00001F00701062903D0016841F00101016013
:1035C0000020704700000140000400400008004057
:1035D000000C004000040140004001400018004081
:1035E00070B5044690F83C000025012817D001264C
:1035F00084F83C60022084F83D002068826822F054
:10360000770222F47F4282600868502838D00DDCAF
:1036100020284FD005DC90B3102811D14AE00220B9
:1036200070BD302846D040280AD13BE060282FD01A
:1036300070280DD0B0F5805F03D0B0F5005F12D0D8
:10364000012584F83D60002084F83C00284670BDC8
:10365000CB68D1E90121206802F06DFB2068816808
:1036600041F0770109E0CB68D1E90121206802F03F
:1036700062FB2068816841F480418160E1E719E0E4
:10368000CA684968206802F02BFC5021206806E0D7
:10369000CA684968206802F034FC6021206802F0A2
:1036A00054FBCEE7CA684968206802F019FC402143
:1036B0002068F4E7226801461046F0E770472DE9DC
:1036C000F04104460068C66805694FF00007A90785
:1036D00013D5B10711D5F91E0161012020772068AB
:1036E00080698007204602D0FFF7E8FF04E000F081
:1036F000D9F8204600F0CCF92777680716D570076F
:1037000014D521686FF0040008610220207720683A
:10371000806910F4407F204602D0FFF7CFFF04E01D
:1037200000F0C0F8204600F0B3F92777280715D538
:10373000300713D521686FF0080008610420207756
:103740002068C0698007204602D0FFF7B7FF04E079
:1037500000F0A8F8204600F09BF92777E80616D578
:10376000F00614D521686FF010000861082020775A
:103770002068C06910F4407F204602D0FFF79EFF0A
:1037800004E000F08FF8204600F082F92777E80780
:1037900008D0F00706D021686FF0010008612046CC
:1037A00000F0E2F9280608D5300606D521686FF04A
:1037B000800008612046FFF715FE680608D57006F0
:1037C00006D521686FF040000861204600F0D6F968
:1037D000A8060AD5B00608D521686FF02000086158
:1037E0002046BDE8F041FFF7FEBDBDE8F0810000D6
:1037F00030B587B0044614216846FCF7C5FE23495E
:10380000214D236800208C150222AB4210D10B6899
:1038100043F001030B6009680094CDE90120039097
:1038200001F001010120CDE904016946184812E0C8
:10383000184DAB4213D10B6843F002030B600968CB
:1038400001F00201059120210091CDE90120CDE98F
:10385000030269461048FEF721FC07B030BD0F4D4A
:10386000AB42FAD10B6843F004030B600968009483
:10387000CDE90120039001F004010320CDE904010A
:1038800069460748E7E70000000001403038024081
:103890000000024000040040000402400004014017
:1038A00000080240704770B5044690F83C000026BE
:1038B0000D4601280FD0012084F83C006AB1042A8B
:1038C0001DD0082A2FD00C2A3FD00126002084F8D2
:1038D0003C00304670BD022070BD206802F03EFA08
:1038E0002068816941F0080181612068816921F0C7
:1038F00004018161206881692A69114311E020680F
:1039000002F05CFA2068816941F4006181612068FD
:10391000816921F480618161206881692A6941EAB5
:1039200002218161D2E7206802F07EFA2068C16935
:1039300041F00801C1612068C16921F00401C16141
:103940002068C1692A69114311E0206802F0A0FAD9
:103950002068C16941F40061C1612068C16921F436
:103960008061C1612068C1692A6941EA0221C1619F
:10397000ACE710B5040003D094F83D0010B107E0A7
:10398000012010BD002084F83C00204600F01EF805
:10399000022084F83D00211D206802F053F9012027
:1039A00084F8460084F83E0084F83F0084F8400024
:1039B00084F8410084F8420084F8430084F844000D
:1039C00084F8450084F83D00002010BD38B5054658
:1039D0000068294B00222949984223D1086840F009
:1039E000010008600868274C00F00100009024489E
:1039F00020604FF0406060604020C4E90202000196
:103A00002061400060618000A0614011C4E90702AC
:103A100020466262FEF78EFA08B1FDF762FB6C6227
:103A2000A56338BD184A904210D11448001F0168A0
:103A300041F0020101600068002200F002000090E5
:103A400005211D20FEF7C0FC1D2010E00F4A90420A
:103A5000E7D1086840F0020008600868002200F022
:103A60000200009005212D20FEF7AEFC2D20BDE8C0
:103A70003840FEF79BBC0000000001404438024083
:103A800028640240DC0E00200004004000040140D5
:103A90000021014800F002B8BC0D002070B50D00F7
:103AA00004464FF0000607D0042D0CD0082D11D08D
:103AB0000C2D16D0012648E02068C16821F4007161
:103AC000C160606A13E02068C16821F48061C16050
:103AD000A06A0CE02068C16821F40061C160E06A5E
:103AE00005E02068C16821F48051C160206BFEF7B9
:103AF0003FF900222946206802F010F9184B41F2E4
:103B0000111120688A10984202D0164B984209D1B0
:103B1000036A0B4206D1036A134203D1436C23F4B8
:103B2000004343642068036A0B4206D1016A1142D4
:103B300003D1016821F00101016001203DB1042D94
:103B400008D0082D09D084F84100304670BD84F8B3
:103B50003E00FAE784F83F00F7E784F84000F4E716
:103B6000000001400004014000680349884201D17F
:103B7000FEF792BB7047000000200040704770477E
:103B800010B504460068406994F84110C0F3C010B5
:103B9000212911D180B12068143050E8001F21F094
:103BA000800140E80012002AF5D1A06B08B1FEF7B1
:103BB00096F8204602F088FA2068406994F842108E
:103BC000C0F38010222911D180B12068143050E850
:103BD000001F21F0400140E80012002AF5D1E06BFF
:103BE00008B1FEF77CF8204602F047FA002010BD2D
:103BF00070470000F8B5016804460868CA684B6958
:103C000010F00F0F4FF0000559D003F0010602F439
:103C10009077374365D0C10705D0D10503D5616CD6
:103C200041F001016164410705D5D90703D0616CFA
:103C300041F002016164810705D5D90703D0616CA9
:103C400041F004016164010707D502F0200131430E
:103C500003D0616C41F008016164616C00293AD0C5
:103C6000800604D5900602D5204602F0EFFA2068BF
:103C70004069616CC0F38010090700D460B320462E
:103C800002F0FBF920684069400621D52068143015
:103C900050E8001F21F0400140E80012002AF5D151
:103CA000E06BA8B16E490165E06BFEF761F8002892
:103CB00011D0E06B016D01B0BDE8F040084783060C
:103CC0000FD593060DD52046BDE8F84002F0BEBAE8
:103CD0002046FFF78DFFF8BD2046FFF789FF65649A
:103CE000F8BD266B2023012E7DD1C6067BD5D606D6
:103CF00079D508684868009048694FF00206400688
:103D000041D5E16B086840680004000CE8D0A28D42
:103D10008242E5D9E085C869B0F5807F2DD0206862
:103D20000C3050E8001F21F4807140E80012002A96
:103D3000F5D12068143050E8001F21F0010140E85F
:103D40000012002AF5D12068143050E8001F21F03D
:103D5000400140E80012002AF5D184F84230256382
:103D600020680C3050E8001F21F0100140E80012DC
:103D7000002AF5D1E06BFDF7B2FF6663A08DE18DFF
:103D8000401A81B22AE0A08DE18D401A81B2E08D07
:103D90000028A5D00029A3D022680C3252E8000FD9
:103DA00020F4907042E80007002FF5D1206814300D
:103DB00050E8002F22F0010240E80027002FF5D143
:103DC00084F84230256320680C3050E8002F22F040
:103DD000100240E80023002BF5D166632046FFF770
:103DE000CEFEF8BDFFE705062BD5150629D594F8BC
:103DF00041002128F5D1A068B0F5805F01D120698C
:103E0000B0B1206A411C2162216800784860E08CD2
:103E1000401E0004000CE084E3D12068C16821F05A
:103E20008001C1602068C16841F04001C160D8E7ED
:103E3000206A0088C0F308004860206A801C206265
:103E4000E5E74006CDD55006CBD5CA68204622F01E
:103E50004002CA6084F8413000F01EFAC1E7000059
:103E60007D5F000870B5040004D094F8410000257F
:103E700010B106E0012070BD84F84050204600F0EB
:103E800023F8242084F841002068C16821F40051FF
:103E9000C160204602F03CFA2068016921F490419B
:103EA00001612068416921F02A0141612068C168EF
:103EB00041F40051C1606564202084F8410084F819
:103EC00042006563002070BD2DE9F04F87B00546C4
:103ED00014216846FCF758FBD948DFF86083103896
:103EE0000222D5F800C0D64B0321DFF858E30024A6
:103EF000960607154FF008094FF4003BC44555D10D
:103F0000D3F800C04CF4002CC3F800C01B6803F4C5
:103F100000230593036843F001030360006800F089
:103F2000010005908DE81600CDE903196946704639
:103F3000FEF7B4F8DFF81493C3494846C9F80010F7
:103F4000C0E90164C0E90347C9F820B08915C9F880
:103F50001440C9E90641B846C9F82440FDF7EAFF14
:103F600008B1FDF7BEF8B94FB748C5F83C906037C7
:103F70003030C9F83850E7E802064020A7E81101C0
:103F8000B24847F814496030BC61FC613C627C6215
:103F9000FDF7D0FF08B1FDF7A4F8AF6300220521BB
:103FA0003420BD63FEF710FA34205AE0DFF8A08217
:103FB000C4455BD1D3F800C04CF4801CC3F800C0EA
:103FC0001B6803F480130593036843F00403036044
:103FD000036803F004030593036843F008030360D8
:103FE0000068884600F0080005904FF48050CDE945
:103FF00000020DF1080C92468CE8100369469548C2
:10400000FEF74CF80420CDE9000A0DF1080A6946D4
:104010008AE810039048FEF741F8DFF830828A49B9
:1040200008F1C00830394046C8F80010C0E9016402
:10403000C0E90347C8F81440C8F81840C8E9074B5E
:10404000C8F82440FDF776FF08B1FDF74AF8C5F837
:104050003C80002205213520C8F83850FEF7B4F91D
:104060003520FEF7A3F907B0BDE8F08FDFF8EC814B
:104070004FF0070AC44542D1714B1B1DD3F800C055
:104080004CF0100CC3F800C01B6803F0100305933C
:10409000036843F0010303600068CDE9024100F0CA
:1040A000010005904FF4C060CDE90002CDF810A0EA
:1040B00069467046FDF7F2FFDFF8A881684940467F
:1040C000C8F80010C0E90164C0E90347C8F820B08F
:1040D0008915C8F81440C8E90641C8F82440FDF71E
:1040E00029FF08B1FCF7FDFFC5F83C80002205213F
:1040F0002520C8F83850FEF767F92520B1E7DFF82A
:104100006881C4454BD1D3F800C04CF4003CC3F8DF
:1041100000C01B6803F400330593036843F00103F8
:1041200003600068CDE9024100F0010005900C2019
:10413000CDE90002CDF810A069467046FDF7AEFF4C
:10414000DFF82081404908F1600848314046C8F84E
:104150000010C0E90164C0E903478915C8F814409C
:10416000C0E906414FF44031C8F820100421C8F8D6
:1041700024100121C8F828100906C8E90B14FDF71E
:10418000D9FE08B1FCF7ADFFC5F83C80002205213F
:104190002620C8F83850FEF717F9262061E7334D7E
:1041A000AC4522D11D6845F480251D601B6803F4D1
:1041B00080230593036843F0020303600068CDE9A0
:1041C000024100F0020005904FF44060CDE900028A
:1041D000CDF810A069462648FDF760FF00220521B2
:1041E0002720FEF7F1F827203BE7224B9C457FF480
:1041F0003AAF134B1B1D1D6845F020051D601B6861
:1042000003F020030593036843F004030360006890
:10421000CDE9024100F004000590C020CDE9000284
:10422000CDF8109069460B48FDF738FF00220521B4
:104230004720FEF7C9F8472013E70000004C004074
:10424000403802400000024040600240EC10002074
:104250000050004000080240000C024000100140E5
:10426000406402400C12002000440040004800401E
:10427000000402400014014090F84230202B01D08D
:104280000220704721B11AB10023036302F0C6B8BF
:1042900001207047704770477047FEE710B5054C26
:1042A0000120207000F0B4F808B1022020702078BE
:1042B00010BD00000808002000B5044800F03CF8DC
:1042C00002485DF804EBC83000F00EB8200400206E
:1042D00010B50349034800F081FF002010BD000025
:1042E0008D4C00086016002008490A23B1F90E2001
:1042F00092FBF3F200EE102AB8EEC00A10EE102A7C
:1043000040F8072F09684160704700000817002037
:1043100010B5FFF7C3FF0149487010BD2C00002005
:104320002DE9084006F0CEFA009000F019F80121BE
:10433000684606F0EDF8F5E708490A23B1F91020C0
:1043400092FBF3F200EE102AB8EEC00A10EE102A2B
:1043500040F8072F89684160704700000817002067
:1043600000B5044805F05AFB02485DF804EB0C3038
:1043700005F05CBB08170020F0B500230A243025A7
:1043800037261F4611E000BFB4EB107F02D905EBC2
:10439000107C01E006EB107C01F813C001EB430C2C
:1043A00000015B1C8CF80170DBB29342ECD3F0BDD2
:1043B00010B500242DED028B90ED3A0AD0ED3B0AAA
:1043C00030EE600AD0ED090AF0EEC08A90ED080ADE
:1043D00030EE600AB0EEC08AFDF758FF18EE901A72
:1043E0004FF07E53094A994206DA18EE101A9942A4
:1043F00002DA0124506005E05168401AB0F5FA7FF6
:1044000000D20124BDEC028B204610BD0004002028
:1044100070B5074D00246C7005F0BEFB0549D1E96D
:104420000021801A8C4101D301206870687870BD2A
:104430000808002038000020164900200A7A012AC6
:1044400003D0022A01D0032A06D14A7A012A05D0D4
:10445000022A03D0032A01D001207047B1F90030AD
:104460004FF4A56203F525739342F5D8B1F90230F4
:1044700003F525739342EFD8B1F9043003F52573A2
:104480009342E9D8B1F9061001F525719142E3D8BC
:10449000704700004816002070B5074D0024AC702E
:1044A00005F07AFB0549D1E90021801A8C4101D33E
:1044B0000120A870A87870BD0408002030000020FA
:1044C00010B5204C1F49183C91F894116278914224
:1044D00005D061701B49D1F8DB20C1F8EC201A49E6
:1044E000CA7C72B1194A92F82020D20716D0184916
:1044F00091ED150A80ED080A1248FFF759FF207068
:1045000010BDB1F90E10D0ED2D0A00EE101AB8EE64
:10451000C00A20EE800A80ED2C0A0BE0B1F90C10E5
:10452000D0ED300A00EE101AB8EEC00A20EE800A74
:1045300080ED2F0AD0ED080A30EEC00A80ED080A9F
:1045400010BD00001804002048160020A41400200C
:104550001415002010B504461A48A0F1180290F86E
:1045600094115378994203D05170D0F813104162DE
:104570001548C17CB0F90C00A9B1144991F820107C
:10458000C90710D0124890ED140A00BF84ED080A44
:1045900004F1200003F01AFED4F80B006061D4F897
:1045A0000F00E06110BD00EE100AD4ED300AB8EE45
:1045B000C00A20EE800A84ED2F0AD4ED080A30EEFE
:1045C000C00AE3E71804002048160020A4140020C5
:1045D00014150020104810B50E49016003214160F8
:1045E00000214FF410228160C0E903124FF4001241
:1045F00042610176012242768276C2760177417766
:10460000FDF7DDF9002803D0BDE81040FCF769BDD7
:1046100010BD0000006400406C0D0020104810B573
:104620000E4901600321416000214FF41022816096
:10463000C0E903124FF40012426101760122427672
:104640008276C27601774177FDF7B9F9002803D069
:10465000BDE81040FCF745BD10BD000000680040FB
:10466000940D0020214808B5016841F480010160E3
:10467000016801F480010091016841F400110160BA
:104680000068002200F40010009005210B20FDF7C7
:104690009BFE0B20FDF78AFE002205210D20FDF771
:1046A00093FE0D20FDF782FE002205210F20FDF76D
:1046B0008BFE0F20FDF77AFE002205211020FDF76A
:1046C00083FE1020FDF772FE002205213920FDF740
:1046D0007BFE3920FDF76AFE002205213A20FDF716
:1046E00073FEBDE808403A20FDF760BE3038024056
:1046F00010B5B2B01C2227496846FBF7F1FE002135
:10470000684605F0FBFA244C22491C2220601C312B
:1047100007A8FBF7E5FE002107A805F0EFFA1D4901
:1047200060601C2238310EA8FBF7DAFE00210EA8CB
:1047300005F0E4FA1749A0601C22543115A8FBF7D4
:10474000CFFE002115A805F0D9FA1249E0601C221D
:1047500070311CA8FBF7C4FE00211CA805F0CEFA9E
:104760000C4920611C228C3123A8FBF7B9FE0021E3
:1047700023A805F0C3FA074960611C22A8312AA8C2
:10478000FBF7AEFE00212AA805F0B8FAA06132B00E
:1047900010BD00007CB7000800000020154808B5D7
:1047A000016841F080010160016801F08001009121
:1047B000016841F001010160016801F0010100910F
:1047C000016841F002010160016801F002010091FD
:1047D000016841F004010160016801F004010091E9
:1047E000016841F008010160006800F008000090D5
:1047F00008BD00003038024010B592B000240F947C
:104800001C2108A81094FBF7BFFE20216846FBF787
:10481000BBFE20481E49C0E90014D121C0E9024175
:1048200080210461C0E90541FFF7A3F808B1FCF756
:1048300058FC0F940FA917481094FEF7FFFD08B11C
:10484000FCF74FFC6020CDE908040A940B940C940B
:104850000D94002208A90F480E94FFF724F808B120
:10486000FCF73FFC00944FF40050CDE90440029463
:1048700001940394694607480794FEF7B5FD08B113
:10488000FCF72FFC0348FEF7B3FF12B010BD000089
:1048900000000140BC0D002010B586B00024164871
:1048A000009401940294039404944FF08041059481
:1048B00001605321C0E9011440F6B731C0E9031487
:1048C0008461FEF703FE08B1FCF70BFC4FF4805047
:1048D000009069460848FEF783FE08B1FCF701FC2A
:1048E000049404A904480594FEF7A8FD002801D00B
:1048F000FCF7F7FB06B010BD040E002010B58AB01F
:10490000002407941C2168460894FBF73DFE1648D6
:10491000144901605321C0E9011444F61F61C0E944
:1049200003148461FFF725F808B1FCF7DAFB07945C
:1049300007A90D480894FEF781FD08B1FCF7D1FBEB
:104940006020CDE9000402940422694606480494DC
:10495000FEF7A9FF08B1FCF7C4FB0348FEF748FFC8
:104960000AB010BD000400404C0E002010B592B0FB
:1049700000240F941C2108A81094FBF705FE2021A9
:104980006846FBF701FE20481E490160A721C0E9E7
:10499000011444F61F61C0E9031444618461FEF709
:1049A000E8FF08B1FCF79DFB0F940FA9164810947F
:1049B000FEF744FD08B1FCF794FB6020CDE9080444
:1049C0000A940B940C940D94082208A90E480E9496
:1049D000FEF769FF08B1FCF784FB00944FF4005028
:1049E000CDE9044002940194039469460648079473
:1049F000FEF7FAFC08B1FCF774FB0348FEF7F8FE7B
:104A000012B010BD00040140940E00200C4810B5F7
:104A10000A4901604FF4E1314160002181600C22BC
:104A2000C160C0E904128161C161FFF71BFA00286F
:104A300003D0BDE81040FCF754BB10BD004C004053
:104A40003C0F00200C4810B50A4901604FF4612169
:104A50004160002181600C22C160C0E904128161C3
:104A6000C161FFF7FFF9002803D0BDE81040FCF753
:104A700038BB10BD00500040840F00200C4810B51A
:104A80000A4901604FF4E1314160002181600C224C
:104A9000C160C0E904128161C161FFF7E3F9002838
:104AA00003D0BDE81040FCF71CBB10BD0010014056
:104AB000CC0F00200E4810B50C4901600D49416033
:104AC0004FF48051816000214FF48062C0E90312ED
:104AD0000C22C0E90521C161FFF7C4F9002803D009
:104AE000BDE81040FCF7FDBA10BD000000440040D6
:104AF00014100020A08601000C4810B50A4901607E
:104B00004FF4E1314160002181600C22C160C0E9B5
:104B100004128161C161FFF7A5F9002803D0BDE847
:104B20001040FCF7DEBA10BD004800405C100020C9
:104B30000C4810B50A4901604FF4E1314160002191
:104B400081600C22C160C0E904128161C161FFF77C
:104B500089F9002803D0BDE81040FCF7C2BA10BDA7
:104B600000140140A410002010B501220F49104884
:104B700002F0FEF808B1FCF7B4FA0E490C4802F056
:104B800012FB08B1FCF7ADFA0B49094801F0A8FE89
:104B900008B1FCF7A6FA064802F088FB002803D00B
:104BA000BDE81040FCF79DBA10BD0000240A0020AB
:104BB000B8540020E00A0020740A002002490320B3
:104BC00081F8640100F002B8C00500200848094BD4
:104BD0000949C0E9701300220849C0F8BC21C0F897
:104BE000C811C0E98113C0F80022C0F80C12704748
:104BF000C00500200050C34600401C4600204B4624
:104C00000A4900B50020887001F1240000F012F874
:104C10000648D03000F00EF8054800F00BF80448C4
:104C20005DF804EBAC3000F005B800006400002033
:104C3000E001002004490162044AC2630164826306
:104C400003494163704700000050434700401C4641
:104C50000000A040FEE700B5FFF7D2FFFCF7E4FA42
:104C6000FFF7ACFF5DF804EBFCF73EBAFEE700008F
:104C700010B50448FDF724FDBDE81040024803F0DC
:104C8000DFB90000B46B0020945900202DE9F041F9
:104C90000024051D474EB0F8847027E0285DC02829
:104CA0003BD012DCA52829D008DC902822D0A028EF
:104CB00024D0A12822D0A22817D11FE0B02824D0C8
:104CC000B12822D0B22810D11FE0D12867D006DC4D
:104CD000C12822D0C22820D0D02806D124E0D9284B
:104CE00051D0E02864D0F02862D0641CA742D5DC03
:104CF000BDE8F0816878B070A41CF7E7281950F877
:104D0000011F7160808830813BE0281950F8011F35
:104D1000C6F80A108088F08133E0281950F8011F86
:104D200031618088B0822CE028194178827801EBCB
:104D3000022109B200EE101A2049F8EEC00A9FEDD8
:104D40001E0A80EE801A81ED001AC278037902EB08
:104D5000032212B200EE902AF8EEE00A80EE801AEA
:104D6000F2EE040A81ED011A4279807902EB00200B
:104D700000B200EE100AB8EEC00A80EE201A81EDF3
:104D8000021AE41DB2E70D4829190C3851F8012F19
:104D9000C2604A68026189680D344161A6E707482C
:104DA000291910220C30491CFBF755FB11349DE7E3
:104DB000641D9BE7080800200000C842EC16002094
:104DC0002DE9F04103680D4604461E6C03EB4511C6
:104DD000D1F8080B94F806E04FF400474FF0200C90
:104DE00004F29C42BEF1010F09D0DFF898E076454D
:104DF00039D1020432D500BFC1F8087B3FE0224B15
:104E00005FEA007E04D59E4239D90004F4D436E02E
:104E10005FEA806E02D5C1F808CB30E010F0280FB1
:104E20002DD19E4201D90004E6D405EBC50004EB68
:104E30008000D1F8101BD0F87432C1F31201591A56
:104E4000C0F8681200F51570ADB903691BB1C268EE
:104E50001144C1600FE0012120680AE080060AD5F4
:104E6000C1F808CB07E035B9D4F8640218B90021BD
:104E7000184602F095FDE9B22046FDF70BFB002035
:104E8000BDE8F0810A31544F0A30544F2DE9F84FF4
:104E90000E4601EBC60100EB810481460568D4E9AA
:104EA00009101434884202D90120BDE8F88F081A8D
:104EB000A168814200D20846C01C870805EB46184D
:104EC0001BE000BFA0EB010AA068504500D282465B
:104ED0000AF10300870899F8060000901FFA8AF388
:104EE000F2B22846E16803F095F8E16801EB0A00A8
:104EF000E060616901EB0A006061D8F8180980B2CE
:104F0000B84205D3D4E90401814201D20028D9D1A5
:104F1000D4E90401884208D806F00F010120884036
:104F2000D5F834188143C5F834180020BDE730B5F2
:104F300010EE101A30EE600AC16010EE901A10EEFA
:104F4000102A01614261416B00EE101A00EE901AC6
:104F5000B1EE401A00EE102A04F002FB10EE101A17
:104F60004161C26900EE101A00EE902A30EE800A0C
:104F700010EE103AC361026A00EE103A00EE902A79
:104F8000B4EEE00AF1EE10FA01DDC26111E000EECC
:104F9000902A00EE103AF1EE600AB4EEE00AF1EE6B
:104FA00010FA06D200EE102AB1EE400A10EE102AD6
:104FB000EBE7026800EE101A00EE902A20EE800A5D
:104FC00010EE104A4462426800EE102AC26900EEF8
:104FD000902A20EE200A10EE103A00EE101A83629A
:104FE000826900EE902A826870EE600A00EE102A54
:104FF00020EE800A10EE105A00EE103AC562C26B25
:1050000000EE902AB4EEE00AF1EE10FA01DD8262C1
:1050100011E000EE902A00EE103AF1EE600AB4EED4
:10502000E00AF1EE10FA06D200EE102AB1EE400AC4
:1050300010EE102AEBE7826A00EE104A00EE902A8A
:1050400070EE200A00EE105A30EE800A10EE102AA0
:1050500002638161816B00EE102A00EE901AB4EEBB
:10506000E00AF1EE10FA01DD016311E000EE901AA2
:1050700000EE102AF1EE600AB4EEE00AF1EE10FA4A
:1050800006D200EE101AB1EE400A10EE101AEBE74D
:10509000006B00EE100A30BD0748017A074801296D
:1050A00006D0032906D0022901D10121C170704721
:1050B0000221FBE70021F9E7481600202C00002020
:1050C000094A0168914203DDB2EE040A80ED000A4C
:1050D000064A0168914202D800EE101A7047BAEEF3
:1050E000040A80ED000A704700002041000020C142
:1050F0002DE9F041384C014620462778D0E90320BD
:105100000623A61D0025072F62D2DFE807F004085A
:105110001A1F272A31005A295BD1012009E080F8A3
:105120008810A52904D0A62905D0A72951D105E0CA
:10513000022020704DE0EAB3904749E005602370FB
:1051400047E0A0F88410B1700320F2E730F8842F14
:1051500042EA01220280F1700420EAE76180052022
:10516000E7E7628842EA012161800560A580E6E701
:105170000368061D5F1C0760995590F88810A729E1
:1051800007D10168082904D30821A0F884109047AA
:1051900025702069B0F884200168914219D390F8F5
:1051A0008800A52815D10C490422891D881E04F009
:1051B00011FC00E00CE02169074804C9001D04F05F
:1051C00009FCA0886188884202D1D4E9031088478D
:1051D00025700020BDE8F0812008002070B5044D46
:1051E0000446E9608C21FBF7CFF92C6170BD00000B
:1051F0002008002010B5074C01202070FFF71CF993
:1052000008B100202070FFF747F908B10220207094
:10521000207810BD040800200346164900B5154843
:10522000183990F894014A78904205D04870114896
:10523000D0F8DB10C0F8EC100F48D3ED2D0AB0F910
:10524000020000EE100A03F12000B8EEC00A20EEC2
:10525000800A83ED2C0AD3ED080A30EE800A83ED34
:10526000080AFFF72DFFD3F80B005861D3F80F00A1
:10527000D86100BD180400204816002010B504466F
:105280001548A0F1180290F894115378994203D070
:105290005170D0F8131041621048D4ED2D0AB0F9C6
:1052A0000000404200EE100A04F12000B8EEC00AEF
:1052B00020EE800A84ED2C0AD4ED080A30EE800A34
:1052C00084ED080A02F082FFD4F80B006061D4F884
:1052D0000F00E06110BD00001804002048160020F7
:1052E00030B5144B1C68656945F0400565611B6865
:1052F000DC6844F01004DC600F4B1C68256825F066
:10530000010525601C682568ED07F7D11D680B4C69
:10531000AC601C68E0601868016118684260186839
:10532000016841F4802101601868016841F00101C1
:10533000016030BD141000206C12002004440040B5
:1053400010B5FFF757FF0149087010BD2C00002071
:1053500011491148703051F8212F42614A68826129
:105360008A68C2610A6902624A6942628A69826223
:10537000CA690263CA68C2620A6A42634A6A82638D
:105380008A6AC26311F8011CC1F3420200F84C2F73
:10539000C1F3021141707047A414002070B5044697
:1053A000554D20682860207928712078A5286ED175
:1053B0000521204602F0A6FE012840D16178204652
:1053C000093102F081FE002839D0B4F8050040F21E
:1053D0000222A0F20221904254D018DCB0F5817F65
:1053E0003BD00ADC01281CD0022829D003282AD06F
:1053F000A0F58070013875D12AE0B0F5827F31D0F8
:10540000A0F58070053832D0FC286BD133E03A48E3
:105410008030082966D2DFE801F0653B42464A4EFB
:105420005A62D4F80700C5F80500D4F80B00C5F897
:105430000900B4F80F00A5F80D00607CE87351E096
:10544000E07928744EE02C482022E11D113023E041
:10545000D4F80700C5F8310044E0D4F80700C5F8D7
:1054600035003FE0B4F80700A5F839003AE0E079EC
:1054700085F83B0036E0FBF7A7FD1F481B22E11D26
:105480003C3009E01C481022E11D573004E031E0B7
:1054900019481022E11D6730FAF7DDFF22E0E079BC
:1054A00085F877001EE0E07985F87C001AE0E07965
:1054B00085F87E0016E0D4F80700C5F87F00B4F840
:1054C0000B00A5F88300607B85F885000AE0D4F81E
:1054D0000710C0F80610B4F80B10418102E0D4F8B0
:1054E0000710C160B5F801000934015DA52901D19B
:1054F000044455E770BD00001C1700200249242217
:10550000A1F12400FFF7ECBE001400202DE90840B3
:1055100005F0D8F9009000F0B1FA0321684604F0D4
:10552000F7FFF5E710B511EE100A2DED088BB0EE80
:10553000608AF0EE408A06F0A5F8B0EE000A9FED12
:1055400021AA68EE808A9FED1E0A41EC190B28EE15
:10555000800A20EE0A0A10EE100A06F093F841ECD9
:10556000100B03F02DFB53EC192B51EC100B05F035
:1055700093FD41EC190B18EE100A06F083F89FED2D
:10558000120A41EC1B0B28EE800A20EE0A0A10EEEC
:10559000100A06F077F841EC100B03F001F953EC18
:1055A0001B2B51EC100B05F077FD53EC192B05F07C
:1055B0007FFF05F061FABDEC088B00EE100A10BD0C
:1055C000DA0F494000000039C3F5484010B510EE2D
:1055D000900A2DED088BB0EE418AF0EE408A06F07D
:1055E00051F8B0EE000A9FED21AA68EE808A9FED87
:1055F0001E0A41EC190B28EE800A20EE0A0A10EE72
:10560000100A06F03FF841EC100B03F0D9FA53EC06
:10561000192B51EC100B05F03FFD41EC190B18EE66
:10562000100A06F02FF89FED120A41EC1B0B28EE32
:10563000800A20EE0A0A10EE100A06F023F841EC68
:10564000100B03F0ADF853EC1B2B51EC100B05F0D5
:1056500023FD53EC192B05F041FA05F00DFABDECD2
:10566000088B00EE100A10BDC3F548400000003959
:10567000DA0F49400178407841EA00207047000085
:105680002DE9084005F01EF9009000F0B5FA01215F
:10569000684604F03DFFF5E710B50D4800F0B6F898
:1056A000BDEEC00A0A4C10EE100A0C3C208004F13A
:1056B000BC0000F0ABF8BDEEC00A10EE100A00B25C
:1056C0006080B4F90010BDE81040FBF765B9000038
:1056D000C40500200949898A890402D59FED080A7A
:1056E00001E09FED080A80ED060AB0F9061000EE11
:1056F000101AB8EEC00A80ED050A7047481600205F
:1057000000007AC400409C459FED060A80ED060A21
:10571000B0F9061000EE101AB8EEC00A80ED050AC6
:105720007047000000C0DAC59FED060A80ED060A4A
:10573000B0F9061000EE101AB8EEC00A80ED050AA6
:105740007047000000C0DA4510B50F4804F078F942
:105750000E489FED0F0AD0ED030A0B486430FFF7A7
:10576000E6FB0C48B0F96A0100EE900A0648F8EE34
:10577000E00A2030FFF7DBFBBDEEC00A054910EE62
:10578000100A1039488010BD280700203816002064
:105790000080CAC4C005002010B50F4804F050F9BD
:1057A0000E489FED0F0AD0ED030A0B486430FFF757
:1057B000BEFB0C48B0F96A0100EE900A0648F8EE0C
:1057C000E00A2030FFF7B3FBBDEEC00A054910EE3A
:1057D000100A1039488010BD280700203816002014
:1057E00000000000C0050020064810B50649827878
:1057F0000A70C07881F8140200F024F9BDE8104066
:1058000000F00EB82C000020C005002000F124019B
:10581000D0ED050A90ED060A0846FFF788BB0000A8
:1058200010B5064800F084F80448B03000F080F865
:10583000BDE81040024800F07BB80000C40500201D
:105840002407002010B500F015F80848FFF75CFFAA
:105850000648B030FFF768FF0548FFF73BFF00F050
:1058600035F8BDE81040FFF717BF0000C405002061
:105870002407002070B5134D0126134C2878012809
:1058800017D1A08A800510D51420FCF7F5FBA08A5B
:1058900080050ED50020287005F1100090F8151233
:1058A000022903D0022180F8151270BD80F815621C
:1058B00070BD28780028FBD1A08A8005F8D42E700E
:1058C00070BD0000B005002048160020144810B537
:1058D00090F8152213480021022A807C0CD0012A5E
:1058E0000FD1012817D01048016041608160C1606C
:1058F000BDE81040FFF750BF094C103C012801D013
:10590000618010BD0948FFF781FFBDEEC00A10EEAF
:10591000100A608010BDBDE81040FFF715BF000001
:10592000C00500204816002038160020240700205B
:105930002DE9F04701782C4C00F12405032902D011
:1059400004294ED135E0284A95F88810274E526830
:1059500005F14407012914D002292549284606D01B
:105960006C31FAF778FD31463846626806E08431DA
:10597000FAF771FD1D49384618316268FAF76BFD78
:1059800017E0DFF864801A4808F11008783098F8BA
:1059900015128146022908D101462846FAF75BFD17
:1059A000314638466268FAF756FD98F81502012824
:1059B00008D095F888000E490028626828460BD068
:1059C0009C310AE0494628466268FAF744FD0749D7
:1059D00038460C316268D1E79031BDE8F047FAF7FC
:1059E0003ABDBDE8F0870000B00500206009002046
:1059F0004008002010B51048FFF786FE0E48B03072
:105A0000FFF792FE0D480246FFF764FE0C490A4C70
:105A10004989143CB1F5257F05D000206080BDE8A0
:105A20001040FFF739BE1046FFF7F0FEBDEEC00A8A
:105A300010EE100AF2E70000C40500202407002041
:105A4000481600200648014690F8142280F8B0203D
:105A500081F8602190F8140281F81002704700006C
:105A6000C005002004490020088048800C39488087
:105A70000146FAF791BF0000BC05002010B5FFF702
:105A8000B3FE0A48007A012807D0022809D003286B
:105A90000BD1BDE81040FFF7E5BFBDE81040FFF7B0
:105AA000A9BFBDE81040FFF7CDBE10BD48160020CD
:105AB000F7EE001A00EEA10A01EE210A7047FFF787
:105AC00053F8012004F00EF9FBE7000010B5502058
:105AD00080F31188BFF34F8FBFF36F8F04F0F8FE90
